{
  "contractName": "FundRaiser",
  "abi": [
    {
      "inputs": [
        {
          "internalType": "uint256",
          "name": "_duration",
          "type": "uint256"
        },
        {
          "internalType": "uint256",
          "name": "_goal",
          "type": "uint256"
        },
        {
          "internalType": "uint256",
          "name": "_minimumContribution",
          "type": "uint256"
        }
      ],
      "stateMutability": "nonpayable",
      "type": "constructor"
    },
    {
      "anonymous": false,
      "inputs": [
        {
          "indexed": true,
          "internalType": "address",
          "name": "from",
          "type": "address"
        },
        {
          "indexed": false,
          "internalType": "uint256",
          "name": "value",
          "type": "uint256"
        }
      ],
      "name": "Contribution",
      "type": "event"
    },
    {
      "anonymous": false,
      "inputs": [
        {
          "indexed": true,
          "internalType": "address",
          "name": "to",
          "type": "address"
        },
        {
          "indexed": false,
          "internalType": "uint256",
          "name": "value",
          "type": "uint256"
        }
      ],
      "name": "FundsDeployed",
      "type": "event"
    },
    {
      "anonymous": false,
      "inputs": [
        {
          "indexed": true,
          "internalType": "address",
          "name": "from",
          "type": "address"
        },
        {
          "indexed": false,
          "internalType": "address",
          "name": "to",
          "type": "address"
        }
      ],
      "name": "OwnerChanged",
      "type": "event"
    },
    {
      "anonymous": false,
      "inputs": [
        {
          "indexed": true,
          "internalType": "address",
          "name": "to",
          "type": "address"
        },
        {
          "indexed": false,
          "internalType": "uint256",
          "name": "value",
          "type": "uint256"
        }
      ],
      "name": "Refund",
      "type": "event"
    },
    {
      "inputs": [],
      "name": "amountRaised",
      "outputs": [
        {
          "internalType": "uint256",
          "name": "",
          "type": "uint256"
        }
      ],
      "stateMutability": "view",
      "type": "function"
    },
    {
      "inputs": [
        {
          "internalType": "address",
          "name": "",
          "type": "address"
        }
      ],
      "name": "contributions",
      "outputs": [
        {
          "internalType": "uint256",
          "name": "",
          "type": "uint256"
        }
      ],
      "stateMutability": "view",
      "type": "function"
    },
    {
      "inputs": [],
      "name": "deadline",
      "outputs": [
        {
          "internalType": "uint256",
          "name": "",
          "type": "uint256"
        }
      ],
      "stateMutability": "view",
      "type": "function"
    },
    {
      "inputs": [],
      "name": "goal",
      "outputs": [
        {
          "internalType": "uint256",
          "name": "",
          "type": "uint256"
        }
      ],
      "stateMutability": "view",
      "type": "function"
    },
    {
      "inputs": [],
      "name": "minimumContribution",
      "outputs": [
        {
          "internalType": "uint256",
          "name": "",
          "type": "uint256"
        }
      ],
      "stateMutability": "view",
      "type": "function"
    },
    {
      "inputs": [],
      "name": "owner",
      "outputs": [
        {
          "internalType": "address",
          "name": "",
          "type": "address"
        }
      ],
      "stateMutability": "view",
      "type": "function"
    },
    {
      "inputs": [],
      "name": "totalContributors",
      "outputs": [
        {
          "internalType": "uint256",
          "name": "",
          "type": "uint256"
        }
      ],
      "stateMutability": "view",
      "type": "function"
    },
    {
      "inputs": [
        {
          "internalType": "address",
          "name": "_newOwner",
          "type": "address"
        }
      ],
      "name": "changeOwner",
      "outputs": [
        {
          "internalType": "bool",
          "name": "",
          "type": "bool"
        }
      ],
      "stateMutability": "nonpayable",
      "type": "function"
    },
    {
      "inputs": [],
      "name": "contribute",
      "outputs": [
        {
          "internalType": "bool",
          "name": "",
          "type": "bool"
        }
      ],
      "stateMutability": "payable",
      "type": "function"
    },
    {
      "inputs": [],
      "name": "getRefund",
      "outputs": [
        {
          "internalType": "bool",
          "name": "",
          "type": "bool"
        }
      ],
      "stateMutability": "payable",
      "type": "function"
    },
    {
      "inputs": [],
      "name": "deployFunds",
      "outputs": [
        {
          "internalType": "bool",
          "name": "",
          "type": "bool"
        }
      ],
      "stateMutability": "nonpayable",
      "type": "function"
    }
  ],
  "bytecode": "0x608060405234801561001057600080fd5b5060405161089838038061089883398101604081905261002f9161005d565b610039834361008b565b60005560019190915560025550600380546001600160a01b031916331790556100b1565b60008060006060848603121561007257600080fd5b8351925060208401519150604084015190509250925092565b600082198211156100ac57634e487b7160e01b600052601160045260246000fd5b500190565b6107d8806100c06000396000f3fe60806040526004361061009c5760003560e01c80638e0be768116100645780638e0be7681461015b578063937e09b114610180578063a6f9dae114610196578063b2d5ae44146101b6578063d7bb99ba146101be578063f251fc8c146101c657600080fd5b806329dcb0cf146100a157806340193883146100ca57806342e94c90146100e05780637b3e5e7b1461010d5780638da5cb5b14610123575b600080fd5b3480156100ad57600080fd5b506100b760005481565b6040519081526020015b60405180910390f35b3480156100d657600080fd5b506100b760015481565b3480156100ec57600080fd5b506100b76100fb366004610734565b60066020526000908152604090205481565b34801561011957600080fd5b506100b760055481565b34801561012f57600080fd5b50600354610143906001600160a01b031681565b6040516001600160a01b0390911681526020016100c1565b34801561016757600080fd5b506101706101dc565b60405190151581526020016100c1565b34801561018c57600080fd5b506100b760025481565b3480156101a257600080fd5b506101706101b1366004610734565b6102d6565b6101706103f0565b610170610530565b3480156101d257600080fd5b506100b760045481565b6003546000906001600160a01b0316331461023e5760405162461bcd60e51b815260206004820181905260248201527f43616c6c6572206973206e6f742074686520636f6e7472616374206f776e657260448201526064015b60405180910390fd5b60005443101561024d57600080fd5b6003546005546040516001600160a01b039092169181156108fc0291906000818181858888f19350505050158015610289573d6000803e3d6000fd5b506003546005546040519081526001600160a01b03909116907f04c429193504ad3c2cf06e0f2297127fd05e32601d5555ce5fd7eae9b77e4d1a906020015b60405180910390a250600190565b6003546000906001600160a01b031633146103335760405162461bcd60e51b815260206004820181905260248201527f43616c6c6572206973206e6f742074686520636f6e7472616374206f776e65726044820152606401610235565b6001600160a01b0382166103955760405162461bcd60e51b8152602060048201526024808201527f496e76616c6964204f776e6572206368616e676520746f2061646472657373206044820152637a65726f60e01b6064820152608401610235565b600380546001600160a01b0319166001600160a01b03841690811790915560405190815233907fb532073b38c83145e3e5135377a08bf9aab55bc0fd7c1179cd4fb995d2a5159c9060200160405180910390a2506001919050565b3360009081526006602052604081205461044c5760405162461bcd60e51b815260206004820152601960248201527f4e6f20636f6e747269627574696f6e20746f2072657475726e000000000000006044820152606401610235565b60005443106104905760405162461bcd60e51b815260206004820152601060248201526f111958591b1a5b99481c995858da195960821b6044820152606401610235565b33600090815260066020526040812080549190556004546104b2906001610668565b6004556005546104c29082610668565b600555604051339082156108fc029083906000818181858888f193505050501580156104f2573d6000803e3d6000fd5b5060405181815233907fbb28353e4598c3b9199101a66e0989549b659a59a54d2c27fbb183f1932c8e6d9060200160405180910390a2600191505090565b600060025434101561058f5760405162461bcd60e51b815260206004820152602260248201527f4d696e696d756d20436f6e747269627574696f6e206c6576656c206e6f74206d604482015261195d60f21b6064820152608401610235565b6000544311156105d65760405162461bcd60e51b8152602060048201526012602482015271111958591b1a5b99481a5cc81c185cdcd95960721b6044820152606401610235565b336000908152600660205260409020546105fc576004546105f89060016106ce565b6004555b3360009081526006602052604090205461061690346106ce565b3360009081526006602052604090205560055461063390346106ce565b60055560405134815233907f4d154d4aae216bed6d0926db77c00df2b57c6b5ba4eee05775de20facede3a7b906020016102c8565b6000828211156106ba5760405162461bcd60e51b815260206004820152601e60248201527f536166654d6174683a207375627472616374696f6e206f766572666c6f7700006044820152606401610235565b60006106c68385610775565b949350505050565b6000806106db838561075d565b90508381101561072d5760405162461bcd60e51b815260206004820152601b60248201527f536166654d6174683a206164646974696f6e206f766572666c6f7700000000006044820152606401610235565b9392505050565b60006020828403121561074657600080fd5b81356001600160a01b038116811461072d57600080fd5b600082198211156107705761077061078c565b500190565b6000828210156107875761078761078c565b500390565b634e487b7160e01b600052601160045260246000fdfea26469706673582212209c883012b614f51aa9bef1c62542d0415976866f263c96b346cbfa86e2509bba64736f6c63430008050033",
  "immutableReferences": {},
  "source": "//SPDX-License-Identifier: MIT\npragma solidity ^0.8.5;\n\n\n/**\n * @title FundRaiser Smart Contract\n * @author Bjarne Verdonck\n * @notice A Fund Raising Smart Contract used to raise funds.\n */\ncontract FundRaiser {\n  using SafeMath for uint256;\n\n  // Initial storage variables\n  uint256 public deadline;  // Deadline Block Number for fundraising campaign\n  uint256 public goal;  // Total amount needing to be raised, in wei\n  uint256 public minimumContribution;  // Minimum contribution value, in wei\n  address public owner;  // Ethereum address of the Smart Contract owner\n  uint256 public totalContributors;  // Total number of contributors\n  uint256 public amountRaised;  // Total amount actually raised\n\n  mapping(address => uint256) public contributions;\n\n  event Contribution(address indexed from, uint256 value);  // Confirmation of Contribution processed\n  event Refund(address indexed to, uint256 value);  // Confirmation of Refund processed\n  event OwnerChanged(address indexed from, address to);  // Confirmation of Owner change processed\n  event FundsDeployed(address indexed to, uint256 value); // Confirmation of funds being deployed;\n\n  /**\n   * @notice Constructor Function used to deploy contract\n   * @dev During Deploy the Ethereum address used to deploy the Smart Contract is set as the \"owner\" and certain functions below can only be actioned by the owner\n   * @param _duration Duration of fund-raising part of Contract, in blocks\n   * @param _goal Financial goal of the Smart Contract, in wei\n   * @param _minimumContribution Minimum amount required for each contribution, in wei\n   */\n   \n  constructor(uint256 _duration, uint256 _goal, uint256 _minimumContribution) {\n    deadline = block.number + _duration;\n    goal = _goal;\n    minimumContribution = _minimumContribution;\n    owner = msg.sender;\n  }\n\n  /**\n   * @notice OnlyOwner Function Modifier\n   * @dev Function Modifier used to restrict certain functions so that they can only be actioned by the contract owner\n   */\n  modifier onlyOwner {\n    require(msg.sender == owner, \"Caller is not the contract owner\");\n    _;\n  }\n\n  /**\n   * @notice Change the owner of the contract\n   * @dev Can only be actioned by the current owner. Requires that _newOwner is not address zero\n   * @param _newOwner Address of new contract owner\n   */\n  function changeOwner(address _newOwner) external onlyOwner returns (bool) {\n    require(_newOwner != address(0), \"Invalid Owner change to address zero\");\n    owner = _newOwner;\n    emit OwnerChanged(msg.sender, _newOwner);\n    return true;\n  }\n\n  /**\n   * @notice Process a Contribution\n   * @dev Payable function that should be sent Ether. Requires that minimum contribution value is met and deadline is not passed\n   */\n  function contribute() external payable returns (bool) {\n\n    //REQUIREMENTS\n    require(msg.value >= minimumContribution, \"Minimum Contribution level not met\");\n    require(block.number <= deadline, \"Deadline is passed\");\n\n    // CHECK IF CONTRIBUTOR HAS ALREADY CONTRIBUTED IF NOT ADD TO TOTAL\n    if(contributions[msg.sender] == 0) {\n      totalContributors = totalContributors.add(1);\n    }\n\n    // SET SENDERS CONTRIBUTION VALUE\n    contributions[msg.sender] = contributions[msg.sender].add(msg.value);\n\n    //UPDATE AMOUNT RAISED\n    amountRaised = amountRaised.add(msg.value);\n\n    //EMIT EVENT\n    emit Contribution(msg.sender, msg.value);\n    return true;\n  }\n\n  /**\n   * @notice Process a Refund\n   * @dev Requires that the contribution exists and the deadline has not passed\n   */\n  function getRefund() external payable returns (bool) {\n\n    //REQUIREMENTS\n    require(contributions[msg.sender] > 0, \"No contribution to return\");\n    require(block.number < deadline, \"Deadline reached\");\n\n    //GET AMOUNT TO REFUND\n    uint256 amountToRefund = contributions[msg.sender];\n\n    //SET SENDERS CONTRIBUTIONS TO 0\n    contributions[msg.sender] = 0;\n\n    //REMOVE CONTRIBUTOR FROM TOTAL\n    totalContributors = totalContributors.sub(1);\n\n    //REMOVE REFUND FROM AMOUNT RAISED\n    amountRaised = amountRaised.sub(amountToRefund);\n\n    //SEND FUNDS\n    payable(msg.sender).transfer(amountToRefund);\n\n    //EMIT EVENT\n    emit Refund(msg.sender, amountToRefund);\n\n    return true;\n  }\n\n\n  /**\n   * @notice Deploy the funds to the owner, sets all contributions to 0 and triggers the payout fee to the dev wallet\n   * @dev Can only be actioned by the owner\n  */\n\n  function deployFunds() external onlyOwner returns (bool) {\n\n    //REQUIREMENTS\n    require(block.number >= deadline);\n\n    //SEND ALL CONTRIBUTIONS TO OWNER\n    payable(owner).transfer(amountRaised);\n\n    //EMIT EVENT\n    emit FundsDeployed(owner, amountRaised);\n\n    return true;\n  }\n\n}\n\n/**\n * @notice SafeMath Library\n * @dev Based on OpenZeppelin/SafeMath Library\n * @dev Used to avoid Solidity Overflow Errors\n * @dev Only add and sub functions used in this contract - others removed\n */\nlibrary SafeMath {\n  // Returns the addition of two unsigned integers & reverts on overflow\n  function add(uint256 a, uint256 b) internal pure returns (uint256) {\n    uint256 c = a + b;\n    require(c >= a, \"SafeMath: addition overflow\");\n    return c;\n  }\n\n  // Returns the subtraction of two unsigned integers & reverts on overflow\n  function sub(uint256 a, uint256 b) internal pure returns (uint256) {\n    require(b <= a, \"SafeMath: subtraction overflow\");\n    uint256 c = a - b;\n    return c;\n  }\n}",
  "sourcePath": "/home/bjarne/Documents/Development/PROJECTS/007_Craiser_Crypto_Fundraiser/smart_contracts/contracts/FundRaiser.sol",
  "compiler": {
    "name": "solc",
    "version": "0.8.5+commit.a4f2e591.Emscripten.clang"
  },
  "schemaVersion": "3.2.3",
  "updatedAt": "2021-07-27T12:28:55.631Z",
  "devdoc": {
    "author": "Bjarne Verdonck",
    "kind": "dev",
    "methods": {
      "changeOwner(address)": {
        "details": "Can only be actioned by the current owner. Requires that _newOwner is not address zero",
        "params": {
          "_newOwner": "Address of new contract owner"
        }
      },
      "constructor": {
        "details": "During Deploy the Ethereum address used to deploy the Smart Contract is set as the \"owner\" and certain functions below can only be actioned by the owner",
        "params": {
          "_duration": "Duration of fund-raising part of Contract, in blocks",
          "_goal": "Financial goal of the Smart Contract, in wei",
          "_minimumContribution": "Minimum amount required for each contribution, in wei"
        }
      },
      "contribute()": {
        "details": "Payable function that should be sent Ether. Requires that minimum contribution value is met and deadline is not passed"
      },
      "deployFunds()": {
        "details": "Can only be actioned by the owner"
      },
      "getRefund()": {
        "details": "Requires that the contribution exists and the deadline has not passed"
      }
    },
    "title": "FundRaiser Smart Contract",
    "version": 1
  },
  "userdoc": {
    "kind": "user",
    "methods": {
      "changeOwner(address)": {
        "notice": "Change the owner of the contract"
      },
      "constructor": {
        "notice": "Constructor Function used to deploy contract"
      },
      "contribute()": {
        "notice": "Process a Contribution"
      },
      "deployFunds()": {
        "notice": "Deploy the funds to the owner, sets all contributions to 0 and triggers the payout fee to the dev wallet"
      },
      "getRefund()": {
        "notice": "Process a Refund"
      }
    },
    "notice": "A Fund Raising Smart Contract used to raise funds.",
    "version": 1
  }
}