{
  "contractName": "FundRaiser",
  "abi": [
    {
      "inputs": [
        {
          "internalType": "uint256",
          "name": "_duration",
          "type": "uint256"
        },
        {
          "internalType": "uint256",
          "name": "_initialPaymentDuration",
          "type": "uint256"
        },
        {
          "internalType": "uint256",
          "name": "_goal",
          "type": "uint256"
        },
        {
          "internalType": "uint256",
          "name": "_minimumContribution",
          "type": "uint256"
        }
      ],
      "payable": false,
      "stateMutability": "nonpayable",
      "type": "constructor"
    },
    {
      "anonymous": false,
      "inputs": [
        {
          "indexed": true,
          "internalType": "address",
          "name": "from",
          "type": "address"
        },
        {
          "indexed": false,
          "internalType": "uint256",
          "name": "value",
          "type": "uint256"
        }
      ],
      "name": "Contribution",
      "type": "event"
    },
    {
      "anonymous": false,
      "inputs": [
        {
          "indexed": true,
          "internalType": "address",
          "name": "from",
          "type": "address"
        },
        {
          "indexed": false,
          "internalType": "address",
          "name": "to",
          "type": "address"
        }
      ],
      "name": "OwnerChanged",
      "type": "event"
    },
    {
      "anonymous": false,
      "inputs": [
        {
          "indexed": true,
          "internalType": "address",
          "name": "from",
          "type": "address"
        },
        {
          "indexed": false,
          "internalType": "uint256",
          "name": "requestId",
          "type": "uint256"
        },
        {
          "indexed": false,
          "internalType": "uint256",
          "name": "value",
          "type": "uint256"
        },
        {
          "indexed": false,
          "internalType": "address",
          "name": "recipient",
          "type": "address"
        }
      ],
      "name": "PaymentReleased",
      "type": "event"
    },
    {
      "anonymous": false,
      "inputs": [
        {
          "indexed": true,
          "internalType": "address",
          "name": "to",
          "type": "address"
        },
        {
          "indexed": false,
          "internalType": "uint256",
          "name": "value",
          "type": "uint256"
        }
      ],
      "name": "Refund",
      "type": "event"
    },
    {
      "anonymous": false,
      "inputs": [
        {
          "indexed": true,
          "internalType": "address",
          "name": "from",
          "type": "address"
        },
        {
          "indexed": false,
          "internalType": "uint256",
          "name": "requestId",
          "type": "uint256"
        },
        {
          "indexed": false,
          "internalType": "string",
          "name": "description",
          "type": "string"
        },
        {
          "indexed": false,
          "internalType": "uint256",
          "name": "value",
          "type": "uint256"
        },
        {
          "indexed": false,
          "internalType": "address",
          "name": "recipient",
          "type": "address"
        }
      ],
      "name": "RequestCreated",
      "type": "event"
    },
    {
      "anonymous": false,
      "inputs": [
        {
          "indexed": true,
          "internalType": "address",
          "name": "from",
          "type": "address"
        },
        {
          "indexed": false,
          "internalType": "uint256",
          "name": "requestId",
          "type": "uint256"
        }
      ],
      "name": "Vote",
      "type": "event"
    },
    {
      "constant": true,
      "inputs": [],
      "name": "amountPaidOut",
      "outputs": [
        {
          "internalType": "uint256",
          "name": "",
          "type": "uint256"
        }
      ],
      "payable": false,
      "stateMutability": "view",
      "type": "function"
    },
    {
      "constant": true,
      "inputs": [],
      "name": "amountRaised",
      "outputs": [
        {
          "internalType": "uint256",
          "name": "",
          "type": "uint256"
        }
      ],
      "payable": false,
      "stateMutability": "view",
      "type": "function"
    },
    {
      "constant": true,
      "inputs": [
        {
          "internalType": "address",
          "name": "",
          "type": "address"
        }
      ],
      "name": "contributions",
      "outputs": [
        {
          "internalType": "uint256",
          "name": "",
          "type": "uint256"
        }
      ],
      "payable": false,
      "stateMutability": "view",
      "type": "function"
    },
    {
      "constant": true,
      "inputs": [],
      "name": "deadline",
      "outputs": [
        {
          "internalType": "uint256",
          "name": "",
          "type": "uint256"
        }
      ],
      "payable": false,
      "stateMutability": "view",
      "type": "function"
    },
    {
      "constant": true,
      "inputs": [],
      "name": "goal",
      "outputs": [
        {
          "internalType": "uint256",
          "name": "",
          "type": "uint256"
        }
      ],
      "payable": false,
      "stateMutability": "view",
      "type": "function"
    },
    {
      "constant": true,
      "inputs": [],
      "name": "initialPaymentDeadline",
      "outputs": [
        {
          "internalType": "uint256",
          "name": "",
          "type": "uint256"
        }
      ],
      "payable": false,
      "stateMutability": "view",
      "type": "function"
    },
    {
      "constant": true,
      "inputs": [],
      "name": "minimumContribution",
      "outputs": [
        {
          "internalType": "uint256",
          "name": "",
          "type": "uint256"
        }
      ],
      "payable": false,
      "stateMutability": "view",
      "type": "function"
    },
    {
      "constant": true,
      "inputs": [],
      "name": "owner",
      "outputs": [
        {
          "internalType": "address",
          "name": "",
          "type": "address"
        }
      ],
      "payable": false,
      "stateMutability": "view",
      "type": "function"
    },
    {
      "constant": true,
      "inputs": [],
      "name": "requestCountMax",
      "outputs": [
        {
          "internalType": "uint256",
          "name": "",
          "type": "uint256"
        }
      ],
      "payable": false,
      "stateMutability": "view",
      "type": "function"
    },
    {
      "constant": true,
      "inputs": [
        {
          "internalType": "uint256",
          "name": "",
          "type": "uint256"
        }
      ],
      "name": "requests",
      "outputs": [
        {
          "internalType": "string",
          "name": "description",
          "type": "string"
        },
        {
          "internalType": "uint256",
          "name": "value",
          "type": "uint256"
        },
        {
          "internalType": "address payable",
          "name": "recipient",
          "type": "address"
        },
        {
          "internalType": "bool",
          "name": "completed",
          "type": "bool"
        },
        {
          "internalType": "uint256",
          "name": "numberOfVoters",
          "type": "uint256"
        }
      ],
      "payable": false,
      "stateMutability": "view",
      "type": "function"
    },
    {
      "constant": true,
      "inputs": [],
      "name": "totalContributors",
      "outputs": [
        {
          "internalType": "uint256",
          "name": "",
          "type": "uint256"
        }
      ],
      "payable": false,
      "stateMutability": "view",
      "type": "function"
    },
    {
      "constant": true,
      "inputs": [],
      "name": "totalRequests",
      "outputs": [
        {
          "internalType": "uint256",
          "name": "",
          "type": "uint256"
        }
      ],
      "payable": false,
      "stateMutability": "view",
      "type": "function"
    },
    {
      "constant": false,
      "inputs": [
        {
          "internalType": "address",
          "name": "_newOwner",
          "type": "address"
        }
      ],
      "name": "changeOwner",
      "outputs": [
        {
          "internalType": "bool",
          "name": "",
          "type": "bool"
        }
      ],
      "payable": false,
      "stateMutability": "nonpayable",
      "type": "function"
    },
    {
      "constant": false,
      "inputs": [],
      "name": "contribute",
      "outputs": [
        {
          "internalType": "bool",
          "name": "",
          "type": "bool"
        }
      ],
      "payable": true,
      "stateMutability": "payable",
      "type": "function"
    },
    {
      "constant": false,
      "inputs": [],
      "name": "getRefund",
      "outputs": [
        {
          "internalType": "bool",
          "name": "",
          "type": "bool"
        }
      ],
      "payable": false,
      "stateMutability": "nonpayable",
      "type": "function"
    },
    {
      "constant": false,
      "inputs": [
        {
          "internalType": "string",
          "name": "_description",
          "type": "string"
        },
        {
          "internalType": "uint256",
          "name": "_value",
          "type": "uint256"
        },
        {
          "internalType": "address payable",
          "name": "_recipient",
          "type": "address"
        }
      ],
      "name": "createRequest",
      "outputs": [
        {
          "internalType": "bool",
          "name": "",
          "type": "bool"
        }
      ],
      "payable": false,
      "stateMutability": "nonpayable",
      "type": "function"
    },
    {
      "constant": false,
      "inputs": [
        {
          "internalType": "uint256",
          "name": "_index",
          "type": "uint256"
        }
      ],
      "name": "voteForRequest",
      "outputs": [
        {
          "internalType": "bool",
          "name": "",
          "type": "bool"
        }
      ],
      "payable": false,
      "stateMutability": "nonpayable",
      "type": "function"
    },
    {
      "constant": true,
      "inputs": [
        {
          "internalType": "uint256",
          "name": "_index",
          "type": "uint256"
        },
        {
          "internalType": "address",
          "name": "_account",
          "type": "address"
        }
      ],
      "name": "hasVoted",
      "outputs": [
        {
          "internalType": "bool",
          "name": "",
          "type": "bool"
        }
      ],
      "payable": false,
      "stateMutability": "view",
      "type": "function"
    },
    {
      "constant": false,
      "inputs": [
        {
          "internalType": "uint256",
          "name": "_index",
          "type": "uint256"
        }
      ],
      "name": "releasePayment",
      "outputs": [
        {
          "internalType": "bool",
          "name": "",
          "type": "bool"
        }
      ],
      "payable": false,
      "stateMutability": "nonpayable",
      "type": "function"
    }
  ],
  "bytecode": "0x6080604052606460095534801561001557600080fd5b506040516116cf3803806116cf8339818101604052608081101561003857600080fd5b5080516020820151604083015160609093015143909201600081905501600155600291909155600355600480546001600160a01b0319163317905561164d806100826000396000f3fe6080604052600436106101145760003560e01c80638a9cfd55116100a0578063a6f9dae111610064578063a6f9dae114610423578063ad028eeb14610456578063b2d5ae441461046b578063d7bb99ba14610480578063f251fc8c1461048857610114565b80638a9cfd55146103275780638aea61dc146103b35780638da5cb5b146103c8578063937e09b1146103f9578063a0660f021461040e57610114565b806366fddd2e116100e757806366fddd2e146101d5578063700127ef146101ea5780637b3e5e7b1461021457806381d12c581461022957806388685cd9146102fd57610114565b806329dcb0cf14610119578063401938831461014057806342e94c90146101555780634385963214610188575b600080fd5b34801561012557600080fd5b5061012e61049d565b60408051918252519081900360200190f35b34801561014c57600080fd5b5061012e6104a3565b34801561016157600080fd5b5061012e6004803603602081101561017857600080fd5b50356001600160a01b03166104a9565b34801561019457600080fd5b506101c1600480360360408110156101ab57600080fd5b50803590602001356001600160a01b03166104bb565b604080519115158252519081900360200190f35b3480156101e157600080fd5b5061012e610557565b3480156101f657600080fd5b506101c16004803603602081101561020d57600080fd5b503561055d565b34801561022057600080fd5b5061012e61076a565b34801561023557600080fd5b506102536004803603602081101561024c57600080fd5b5035610770565b6040518080602001868152602001856001600160a01b03166001600160a01b0316815260200184151515158152602001838152602001828103825287818151815260200191508051906020019080838360005b838110156102be5781810151838201526020016102a6565b50505050905090810190601f1680156102eb5780820380516001836020036101000a031916815260200191505b50965050505050505060405180910390f35b34801561030957600080fd5b506101c16004803603602081101561032057600080fd5b5035610849565b34801561033357600080fd5b506101c16004803603606081101561034a57600080fd5b81019060208101813564010000000081111561036557600080fd5b82018360208201111561037757600080fd5b8035906020019184600183028401116401000000008311171561039957600080fd5b9193509150803590602001356001600160a01b0316610af4565b3480156103bf57600080fd5b5061012e610e95565b3480156103d457600080fd5b506103dd610e9b565b604080516001600160a01b039092168252519081900360200190f35b34801561040557600080fd5b5061012e610eaa565b34801561041a57600080fd5b5061012e610eb0565b34801561042f57600080fd5b506101c16004803603602081101561044657600080fd5b50356001600160a01b0316610eb6565b34801561046257600080fd5b5061012e610fb9565b34801561047757600080fd5b506101c1610fbf565b6101c161123d565b34801561049457600080fd5b5061012e61137a565b60005481565b60025481565b600b6020526000908152604090205481565b60008260065411610513576040805162461bcd60e51b815260206004820152601f60248201527f5370656e64696e67207265717565737420646f6573206e6f7420657869737400604482015290519081900360640190fd5b6000600a848154811061052257fe5b600091825260208083206001600160a01b03871684526004600590930201919091019052604090205460ff1691505092915050565b60015481565b600081600654116105b5576040805162461bcd60e51b815260206004820152601f60248201527f5370656e64696e67207265717565737420646f6573206e6f7420657869737400604482015290519081900360640190fd5b6000600a83815481106105c457fe5b600091825260209091206005909102016002810154909150600160a01b900460ff1615610634576040805162461bcd60e51b815260206004820152601960248201527814995c5d595cdd08185b1c9958591e4818dbdb5c1b195d1959603a1b604482015290519081900360640190fd5b336000908152600b6020526040902054610695576040805162461bcd60e51b815260206004820152601b60248201527f4e6f20636f6e747269627574696f6e2066726f6d2043616c6c65720000000000604482015290519081900360640190fd5b33600090815260048201602052604090205460ff16156106f3576040805162461bcd60e51b815260206004820152601460248201527310d85b1b195c88185b1c9958591e481d9bdd195960621b604482015290519081900360640190fd5b3360009081526004820160205260409020805460ff1916600190811790915560038201546107269163ffffffff61138016565b600382015560408051848152905133917ff668ead05c744b9178e571d2edb452e72baf6529c8d72160e64e59b50d865bd0919081900360200190a250600192915050565b60075481565b600a818154811061077d57fe5b60009182526020918290206005919091020180546040805160026001841615610100026000190190931692909204601f8101859004850283018501909152808252919350918391908301828280156108165780601f106107eb57610100808354040283529160200191610816565b820191906000526020600020905b8154815290600101906020018083116107f957829003601f168201915b5050505060018301546002840154600390940154929390926001600160a01b0382169250600160a01b90910460ff169085565b6004546000906001600160a01b031633146108ab576040805162461bcd60e51b815260206004820181905260248201527f43616c6c6572206973206e6f742074686520636f6e7472616374206f776e6572604482015290519081900360640190fd5b8160065411610901576040805162461bcd60e51b815260206004820152601f60248201527f5370656e64696e67207265717565737420646f6573206e6f7420657869737400604482015290519081900360640190fd5b6000600a838154811061091057fe5b600091825260209091206005909102016002810154909150600160a01b900460ff1615610980576040805162461bcd60e51b815260206004820152601960248201527814995c5d595cdd08185b1c9958591e4818dbdb5c1b195d1959603a1b604482015290519081900360640190fd5b60026005548161098c57fe5b048160030154116109e4576040805162461bcd60e51b815260206004820152601a60248201527f4c657373207468616e2061206d616a6f7269747920766f746564000000000000604482015290519081900360640190fd5b4781600101541115610a275760405162461bcd60e51b81526004018080602001828103825260348152602001806115576034913960400191505060405180910390fd5b6001810154600854610a3e9163ffffffff61138016565b60085560028101805460ff60a01b1916600160a01b179081905560018201546040516001600160a01b039092169181156108fc0291906000818181858888f19350505050158015610a93573d6000803e3d6000fd5b50600181015460028201546040805186815260208101939093526001600160a01b0391909116828201525133917ff46983cb821739eabbadf1c17f42bcf1148613e6d6006eea2677f3d8ddf53243919081900360600190a250600192915050565b6004546000906001600160a01b03163314610b56576040805162461bcd60e51b815260206004820181905260248201527f43616c6c6572206973206e6f742074686520636f6e7472616374206f776e6572604482015290519081900360640190fd5b60008311610b955760405162461bcd60e51b81526004018080602001828103825260258152602001806115af6025913960400191505060405180910390fd5b6002546007541015610bee576040805162461bcd60e51b815260206004820152601f60248201527f416d6f756e7420526169736564206973206c657373207468616e20476f616c00604482015290519081900360640190fd5b47831115610c2d5760405162461bcd60e51b81526004018080602001828103825260348152602001806115576034913960400191505060405180910390fd5b6001600160a01b038216610c725760405162461bcd60e51b81526004018080602001828103825260218152602001806115d46021913960400191505060405180910390fd5b60095460065410610cb45760405162461bcd60e51b81526004018080602001828103825260248152602001806115f56024913960400191505060405180910390fd5b610cbc61143e565b6040518060a0016040528087878080601f016020809104026020016040519081016040528093929190818152602001838380828437600092018290525093855250505060208083018890526001600160a01b0387166040840152606083018290526080909201819052600a80546001810180835591909252835180519495509093859360059093027fc65a7bb8d6351c1cf70c95a316cc6a92839c986682d98bc35f958f4883f9d2a80192610d75928492910190611478565b506020820151600180830191909155604083015160028301805460608601511515600160a01b0260ff60a01b196001600160a01b039094166001600160a01b03199092169190911792909216919091179055608090920151600390910155600654610de792509063ffffffff61138016565b600681905533907f77f75fa04c12349333010a536c2037856d763676559b66cc8be3518119ac96e890610e2190600163ffffffff6113e116565b888888886040518086815260200180602001848152602001836001600160a01b03166001600160a01b031681526020018281038252868682818152602001925080828437600083820152604051601f909101601f19169092018290039850909650505050505050a250600195945050505050565b60065481565b6004546001600160a01b031681565b60035481565b60095481565b6004546000906001600160a01b03163314610f18576040805162461bcd60e51b815260206004820181905260248201527f43616c6c6572206973206e6f742074686520636f6e7472616374206f776e6572604482015290519081900360640190fd5b6001600160a01b038216610f5d5760405162461bcd60e51b815260040180806020018281038252602481526020018061158b6024913960400191505060405180910390fd5b600480546001600160a01b0384166001600160a01b03199091168117909155604080519182525133917fb532073b38c83145e3e5135377a08bf9aab55bc0fd7c1179cd4fb995d2a5159c919081900360200190a2506001919050565b60085481565b336000908152600b6020526040812054611020576040805162461bcd60e51b815260206004820152601960248201527f4e6f20636f6e747269627574696f6e20746f2072657475726e00000000000000604482015290519081900360640190fd5b600054431161106d576040805162461bcd60e51b8152602060048201526014602482015273111958591b1a5b99481b9bdd081c995858da195960621b604482015290519081900360640190fd5b600854156110c2576040805162461bcd60e51b815260206004820152601f60248201527f5061796d656e7473206861766520616c7265616479206265656e206d61646500604482015290519081900360640190fd5b6002546007541061110d57600154431161110d5760405162461bcd60e51b81526004018080602001828103825260248152602001806115336024913960400191505060405180910390fd5b336000908152600b60205260408120805491905560055461113590600163ffffffff6113e116565b60055560005b6006548110801561114d575060095481105b156111cf576000600a828154811061116157fe5b600091825260208083203384526004600590930201918201905260409091205490915060ff161515600114156111c6573360009081526004820160205260409020805460ff1916905560038101546111c090600163ffffffff6113e116565b60038201555b5060010161113b565b50604051339082156108fc029083906000818181858888f193505050501580156111fd573d6000803e3d6000fd5b5060408051828152905133917fbb28353e4598c3b9199101a66e0989549b659a59a54d2c27fbb183f1932c8e6d919081900360200190a260019150505b90565b60006003543410156112805760405162461bcd60e51b81526004018080602001828103825260228152602001806115116022913960400191505060405180910390fd5b6000544311156112cc576040805162461bcd60e51b8152602060048201526012602482015271111958591b1a5b99481a5cc81c185cdcd95960721b604482015290519081900360640190fd5b336000908152600b60205260409020546112f8576005546112f490600163ffffffff61138016565b6005555b336000908152600b6020526040902054611318903463ffffffff61138016565b336000908152600b602052604090205560075461133b903463ffffffff61138016565b60075560408051348152905133917f4d154d4aae216bed6d0926db77c00df2b57c6b5ba4eee05775de20facede3a7b919081900360200190a250600190565b60055481565b6000828201838110156113da576040805162461bcd60e51b815260206004820152601b60248201527f536166654d6174683a206164646974696f6e206f766572666c6f770000000000604482015290519081900360640190fd5b9392505050565b600082821115611438576040805162461bcd60e51b815260206004820152601e60248201527f536166654d6174683a207375627472616374696f6e206f766572666c6f770000604482015290519081900360640190fd5b50900390565b6040518060a00160405280606081526020016000815260200160006001600160a01b03168152602001600015158152602001600081525090565b828054600181600116156101000203166002900490600052602060002090601f016020900481019282601f106114b957805160ff19168380011785556114e6565b828001600101855582156114e6579182015b828111156114e65782518255916020019190600101906114cb565b506114f29291506114f6565b5090565b61123a91905b808211156114f257600081556001016114fc56fe4d696e696d756d20436f6e747269627574696f6e206c6576656c206e6f74206d6574496e697469616c205061796d656e7420446561646c696e65206e6f7420726561636865645370656e64696e6720726571756573742076616c75652067726561746572207468616e20616d6f756e7420617661696c61626c65496e76616c6964204f776e6572206368616e676520746f2061646472657373207a65726f5370656e64696e6720726571756573742076616c75652063616e6e6f74206265207a65726f496e76616c696420526563697069656e74206f662061646472657373207a65726f5370656e64696e67205265717565737420436f756e74206c696d69742072656163686564a265627a7a723158206aaec6fd7313aa3a5b9d202c9896ee95e9d8093e68f8be9e35976b3d19df8e0164736f6c63430005100032",
  "source": "pragma solidity 0.5.16;\n\n/**\n * @title FundRaiser Smart Contract\n * @author Verdonck Bjarne\n * @notice A smart contract based fundraising. Uses community voting for allowence of spending\n */\ncontract FundRaiser {\n  using SafeMath for uint256;\n  // Initial set-up of Struct for Spending Requests\n  struct Request {\n    string description;\n    uint256 value;\n    address payable recipient;\n    bool completed;\n    uint256 numberOfVoters;\n    mapping(address => bool) voters;\n  }\n\n  // Initial storage variables\n  uint256 public deadline;  // Deadline Block Number for fundraising campaign\n  uint256 public initialPaymentDeadline; // Deadline Block Number for initial payment release to be approved and processed\n  uint256 public goal;  // Total amount needing to be raised, in wei\n  uint256 public minimumContribution;  // Minimum contribution value, in wei\n  address public owner;  // Ethereum address of the Smart Contract owner\n  uint256 public totalContributors;  // Total number of contributors\n  uint256 public totalRequests;  // Total number of spending requests\n  uint256 public amountRaised;  // Total amount actually raised\n  uint256 public amountPaidOut;  // Total amount actually paid out\n  uint256 public requestCountMax = 100;  // Max Count of Spending Requests, required to stop refund/remove voting loop from getting out of gas. Recommend 100 and never > 1000\n\n  Request[] public requests;\n\n  mapping(address => uint256) public contributions;\n\n  event Contribution(address indexed from, uint256 value);  // Confirmation of Contribution processed\n  event Refund(address indexed to, uint256 value);  // Confirmation of Refund processed\n  event RequestCreated(address indexed from, uint256 requestId, string description, uint256 value, address recipient);  // Confirmation of Spending Request Created\n  event Vote(address indexed from, uint256 requestId);  // Confirmation of Vote processed\n  event PaymentReleased(address indexed from, uint256 requestId, uint256 value, address recipient);  // Confirmation of Spending Request Payment Released\n  event OwnerChanged(address indexed from, address to);  // Confirmation of Owner change processed\n\n  /**\n   * @notice Constructor Function used to deploy contract\n   * @dev During Deploy the Ethereum address used to deploy the Smart Contract is set as the \"owner\" and certain functions below can only be actioned by the owner\n   * @param _duration Duration of fund-raising part of Contract, in blocks\n   * @param _initialPaymentDuration Period after _duration for owner to start releasing payments, in blocks\n   * @param _goal Financial goal of the Smart Contract, in wei\n   * @param _minimumContribution Minimum amount required for each contribution, in wei\n   */\n  constructor(uint256 _duration, uint256 _initialPaymentDuration, uint256 _goal, uint256 _minimumContribution) public {\n    deadline = block.number + _duration;\n    initialPaymentDeadline = block.number + _duration + _initialPaymentDuration;\n    goal = _goal;\n    minimumContribution = _minimumContribution;\n    owner = msg.sender;\n  }\n\n  /**\n   * @notice OnlyOwner Function Modifier\n   * @dev Function Modifier used to restrict certain functions so that they can only be actioned by the contract owner\n   */\n  modifier onlyOwner {\n    require(msg.sender == owner, \"Caller is not the contract owner\");\n    _;\n  }\n\n  /**\n   * @dev Fallback Function not allowed\n   * @dev Removed as contracts without a fallback function now automatically revert payments\n   */\n  /*\n  function() external {\n    revert(\"Fallback method not allowed\");\n  }\n  */\n\n  /**\n   * @notice Change the owner of the contract\n   * @dev Can only be actioned by the current owner. Requires that _newOwner is not address zero\n   * @param _newOwner Address of new contract owner\n   */\n  function changeOwner(address _newOwner) external onlyOwner returns (bool) {\n    require(_newOwner != address(0), \"Invalid Owner change to address zero\");\n    owner = _newOwner;\n    emit OwnerChanged(msg.sender, _newOwner);\n    return true;\n  }\n\n  /**\n   * @notice Process a Contribution\n   * @dev Payable function that should be sent Ether. Requires that minimum contribution value is met and deadline is not passed\n   */\n  function contribute() external payable returns (bool) {\n    require(msg.value >= minimumContribution, \"Minimum Contribution level not met\");\n    require(block.number <= deadline, \"Deadline is passed\");\n\n    // Check if it is the first time the contributor is contributing\n    if(contributions[msg.sender] == 0) {\n      totalContributors = totalContributors.add(1);\n    }\n    contributions[msg.sender] = contributions[msg.sender].add(msg.value);\n    amountRaised = amountRaised.add(msg.value);\n    emit Contribution(msg.sender, msg.value);\n    return true;\n  }\n\n  /**\n   * @notice Process a Refund, including reversing any voting\n   * @dev Requires that the contribution exists, the deadline has passed and NO payments have been made. If the goal is reached then requires that initialPaymentDeadline has passed\n   */\n  function getRefund() external returns (bool) {\n    require(contributions[msg.sender] > 0, \"No contribution to return\");\n    require(block.number > deadline, \"Deadline not reached\");\n    require(amountPaidOut == 0, \"Payments have already been made\");\n    if (amountRaised >= goal) {\n      require(block.number > initialPaymentDeadline, \"Initial Payment Deadline not reached\");\n    }\n    uint256 amountToRefund = contributions[msg.sender];\n    contributions[msg.sender] = 0;\n    totalContributors = totalContributors.sub(1);\n    // amountRaised = amountRaised.sub(amountToRefund); // Removed to allow createRequest to still work if fundRaiser passed goal but then had refunds\n    for (uint x = 0; (x < totalRequests && x < requestCountMax); x++) {\n      Request storage thisRequest = requests[x];\n      if (thisRequest.voters[msg.sender] == true) {\n        thisRequest.voters[msg.sender] = false;\n        thisRequest.numberOfVoters = thisRequest.numberOfVoters.sub(1);\n      }\n    }\n    msg.sender.transfer(amountToRefund);\n    emit Refund(msg.sender, amountToRefund);\n    return true;\n  }\n\n  /**\n   * @notice Create a spending request\n   * @dev  Can only be actioned by the owner. Requires that the goal has been reached and the _value is not zero and does not exceed amountRaised or balance available on the contract. Also requires that _recipient is not address zero and requestCountMax has not been reached. Each spending request is stored sequentially starting from record 0\n   * @param _description A description of what the money will be spent on\n   * @param _value The amount being spent with this spending request\n   * @param _recipient The Ethereum address of where the money will be sent\n   */\n  function createRequest(string calldata _description, uint256 _value, address payable _recipient) external onlyOwner returns (bool) {\n    require(_value > 0, \"Spending request value cannot be zero\");\n    require(amountRaised >= goal, \"Amount Raised is less than Goal\");\n    require(_value <= address(this).balance, \"Spending request value greater than amount available\");\n    require(_recipient != address(0), \"Invalid Recipient of address zero\");\n    require(totalRequests < requestCountMax, \"Spending Request Count limit reached\");\n\n    Request memory newRequest = Request({\n      description: _description,\n      value: _value,\n      recipient: _recipient,\n      completed: false,\n      numberOfVoters: 0\n    });\n    requests.push(newRequest);\n    totalRequests = totalRequests.add(1);\n    emit RequestCreated(msg.sender, totalRequests.sub(1), _description, _value, _recipient);\n    return true;\n  }\n\n  /**\n   * @notice Vote for a spending request\n   * @dev Requires that the caller made a contribution and has not already voted for the request. Also requires that the request exists and is not completed\n   * @param _index Index Number of Spending Request to vote for\n   */\n  function voteForRequest(uint256 _index) external returns (bool) {\n    require(totalRequests > _index, \"Spending request does not exist\");\n\n    Request storage thisRequest = requests[_index];\n    \n    require(thisRequest.completed == false, \"Request already completed\");\n    require(contributions[msg.sender] > 0, \"No contribution from Caller\");\n    require(thisRequest.voters[msg.sender] == false, \"Caller already voted\");\n\n    thisRequest.voters[msg.sender] = true;\n    thisRequest.numberOfVoters = thisRequest.numberOfVoters.add(1);\n    emit Vote(msg.sender, _index);\n    return true;\n  }\n\n  /**\n   * @notice View if account has voted for spending request\n   * @dev Requires that the request exists\n   * @param _index Index Number of Spending Request to check\n   * @param _account Address of Account to check\n   */\n  function hasVoted(uint256 _index, address _account) external view returns (bool) {\n    require(totalRequests > _index, \"Spending request does not exist\");\n    Request storage thisRequest = requests[_index];\n    return thisRequest.voters[_account];\n  }\n\n  /**\n   * @notice Release the payment for a spending request\n   * @dev Can only be actioned by the owner. Requires that the request exists and is not completed, and that there are funds available to make the payment. Also requires that over 50% of the contributors voted for the request\n   * @param _index Index Number of Spending Request to release payment\n   */\n  function releasePayment(uint256 _index) external onlyOwner returns (bool) {\n    require(totalRequests > _index, \"Spending request does not exist\");\n\n    Request storage thisRequest = requests[_index];\n\n    require(thisRequest.completed == false, \"Request already completed\");\n    require(thisRequest.numberOfVoters > totalContributors / 2, \"Less than a majority voted\");\n    require(thisRequest.value <= address(this).balance, \"Spending request value greater than amount available\");\n\n    amountPaidOut = amountPaidOut.add(thisRequest.value);\n    thisRequest.completed = true;\n    thisRequest.recipient.transfer(thisRequest.value);\n    emit PaymentReleased(msg.sender, _index, thisRequest.value, thisRequest.recipient);\n    return true;\n  }\n\n  /**\n   * @notice Test Functions\n   * @dev These functions are ONLY required to expose the SafeMath internal Library functions and the changeRequestCountMax function for testing. These can be commented or removed after testing\n   */\n  /*\n  function testAdd(uint256 a, uint256 b) external pure returns (uint256) {\n    return SafeMath.add(a, b);\n  }\n\n  function testSub(uint256 a, uint256 b) external pure returns (uint256) {\n    return SafeMath.sub(a, b);\n  }\n\n  event RequestCountMaxChanged(uint256 value);\n\n  function changeRequestCountMax(uint256 _newRequestCountMax) external onlyOwner returns (bool) {\n    require(_newRequestCountMax > 0, \"Request Count limit cannot be less than zero\");\n    require(_newRequestCountMax >= totalRequests, \"Request Count limit cannot be less than Total Current Requests\");\n    requestCountMax = _newRequestCountMax;\n    emit RequestCountMaxChanged( _newRequestCountMax);\n    return true;\n  }\n  */\n}\n\n/**\n * @notice SafeMath Library\n * @dev Based on OpenZeppelin/SafeMath Library\n * @dev Used to avoid Solidity Overflow Errors\n * @dev Only add and sub functions used in this contract - others removed\n */\nlibrary SafeMath {\n  // Returns the addition of two unsigned integers & reverts on overflow\n  function add(uint256 a, uint256 b) internal pure returns (uint256) {\n    uint256 c = a + b;\n    require(c >= a, \"SafeMath: addition overflow\");\n    return c;\n  }\n\n  // Returns the subtraction of two unsigned integers & reverts on overflow\n  function sub(uint256 a, uint256 b) internal pure returns (uint256) {\n    require(b <= a, \"SafeMath: subtraction overflow\");\n    uint256 c = a - b;\n    return c;\n  }\n}",
  "sourcePath": "/home/bjarne/Documents/Development/PROJECTS/007_Craiser_Crypto_Fundraiser/smart_contracts/contracts/FundRaiser.sol",
  "compiler": {
    "name": "solc",
    "version": "0.5.16+commit.9c3226ce.Emscripten.clang"
  },
  "schemaVersion": "3.2.3",
  "updatedAt": "2021-06-21T12:45:31.125Z",
  "devdoc": {
    "author": "Verdonck Bjarne",
    "methods": {
      "changeOwner(address)": {
        "details": "Can only be actioned by the current owner. Requires that _newOwner is not address zero",
        "params": {
          "_newOwner": "Address of new contract owner"
        }
      },
      "constructor": {
        "details": "During Deploy the Ethereum address used to deploy the Smart Contract is set as the \"owner\" and certain functions below can only be actioned by the owner",
        "params": {
          "_duration": "Duration of fund-raising part of Contract, in blocks",
          "_goal": "Financial goal of the Smart Contract, in wei",
          "_initialPaymentDuration": "Period after _duration for owner to start releasing payments, in blocks",
          "_minimumContribution": "Minimum amount required for each contribution, in wei"
        }
      },
      "contribute()": {
        "details": "Payable function that should be sent Ether. Requires that minimum contribution value is met and deadline is not passed"
      },
      "createRequest(string,uint256,address)": {
        "details": "Can only be actioned by the owner. Requires that the goal has been reached and the _value is not zero and does not exceed amountRaised or balance available on the contract. Also requires that _recipient is not address zero and requestCountMax has not been reached. Each spending request is stored sequentially starting from record 0",
        "params": {
          "_description": "A description of what the money will be spent on",
          "_recipient": "The Ethereum address of where the money will be sent",
          "_value": "The amount being spent with this spending request"
        }
      },
      "getRefund()": {
        "details": "Requires that the contribution exists, the deadline has passed and NO payments have been made. If the goal is reached then requires that initialPaymentDeadline has passed"
      },
      "hasVoted(uint256,address)": {
        "details": "Requires that the request exists",
        "params": {
          "_account": "Address of Account to check",
          "_index": "Index Number of Spending Request to check"
        }
      },
      "releasePayment(uint256)": {
        "details": "Can only be actioned by the owner. Requires that the request exists and is not completed, and that there are funds available to make the payment. Also requires that over 50% of the contributors voted for the request",
        "params": {
          "_index": "Index Number of Spending Request to release payment"
        }
      },
      "voteForRequest(uint256)": {
        "details": "Requires that the caller made a contribution and has not already voted for the request. Also requires that the request exists and is not completed",
        "params": {
          "_index": "Index Number of Spending Request to vote for"
        }
      }
    },
    "title": "FundRaiser Smart Contract"
  },
  "userdoc": {
    "methods": {
      "changeOwner(address)": {
        "notice": "Change the owner of the contract"
      },
      "constructor": "Constructor Function used to deploy contract",
      "contribute()": {
        "notice": "Process a Contribution"
      },
      "createRequest(string,uint256,address)": {
        "notice": "Create a spending request"
      },
      "getRefund()": {
        "notice": "Process a Refund, including reversing any voting"
      },
      "hasVoted(uint256,address)": {
        "notice": "View if account has voted for spending request"
      },
      "releasePayment(uint256)": {
        "notice": "Release the payment for a spending request"
      },
      "voteForRequest(uint256)": {
        "notice": "Vote for a spending request"
      }
    },
    "notice": "A smart contract based fundraising. Uses community voting for allowence of spending"
  }
}